{
  "_format": "hh-sol-artifact-1",
  "contractName": "GymStoreNFT",
  "sourceName": "contracts/GymStore.sol",
  "abi": [
    {
      "inputs": [],
      "stateMutability": "nonpayable",
      "type": "constructor"
    },
    {
      "anonymous": false,
      "inputs": [
        {
          "indexed": true,
          "internalType": "address",
          "name": "owner",
          "type": "address"
        },
        {
          "indexed": true,
          "internalType": "address",
          "name": "approved",
          "type": "address"
        },
        {
          "indexed": true,
          "internalType": "uint256",
          "name": "tokenId",
          "type": "uint256"
        }
      ],
      "name": "Approval",
      "type": "event"
    },
    {
      "anonymous": false,
      "inputs": [
        {
          "indexed": true,
          "internalType": "address",
          "name": "owner",
          "type": "address"
        },
        {
          "indexed": true,
          "internalType": "address",
          "name": "operator",
          "type": "address"
        },
        {
          "indexed": false,
          "internalType": "bool",
          "name": "approved",
          "type": "bool"
        }
      ],
      "name": "ApprovalForAll",
      "type": "event"
    },
    {
      "anonymous": false,
      "inputs": [
        {
          "indexed": true,
          "internalType": "address",
          "name": "from",
          "type": "address"
        },
        {
          "indexed": true,
          "internalType": "address",
          "name": "to",
          "type": "address"
        },
        {
          "indexed": true,
          "internalType": "uint256",
          "name": "tokenId",
          "type": "uint256"
        }
      ],
      "name": "Transfer",
      "type": "event"
    },
    {
      "inputs": [
        {
          "internalType": "address",
          "name": "to",
          "type": "address"
        },
        {
          "internalType": "uint256",
          "name": "tokenId",
          "type": "uint256"
        }
      ],
      "name": "approve",
      "outputs": [],
      "stateMutability": "nonpayable",
      "type": "function"
    },
    {
      "inputs": [
        {
          "internalType": "address",
          "name": "owner",
          "type": "address"
        }
      ],
      "name": "balanceOf",
      "outputs": [
        {
          "internalType": "uint256",
          "name": "",
          "type": "uint256"
        }
      ],
      "stateMutability": "view",
      "type": "function"
    },
    {
      "inputs": [
        {
          "internalType": "string",
          "name": "cityName",
          "type": "string"
        },
        {
          "internalType": "string",
          "name": "description",
          "type": "string"
        },
        {
          "internalType": "string",
          "name": "_googleAddress",
          "type": "string"
        },
        {
          "internalType": "string",
          "name": "_logo",
          "type": "string"
        },
        {
          "internalType": "string[]",
          "name": "_subscriptions",
          "type": "string[]"
        }
      ],
      "name": "createStore",
      "outputs": [],
      "stateMutability": "nonpayable",
      "type": "function"
    },
    {
      "inputs": [
        {
          "internalType": "uint256",
          "name": "_storeId",
          "type": "uint256"
        }
      ],
      "name": "deleteStore",
      "outputs": [],
      "stateMutability": "nonpayable",
      "type": "function"
    },
    {
      "inputs": [
        {
          "internalType": "uint256",
          "name": "tokenId",
          "type": "uint256"
        }
      ],
      "name": "getApproved",
      "outputs": [
        {
          "internalType": "address",
          "name": "",
          "type": "address"
        }
      ],
      "stateMutability": "view",
      "type": "function"
    },
    {
      "inputs": [
        {
          "internalType": "uint256",
          "name": "_id",
          "type": "uint256"
        }
      ],
      "name": "getStore",
      "outputs": [
        {
          "internalType": "uint256",
          "name": "",
          "type": "uint256"
        },
        {
          "internalType": "string",
          "name": "",
          "type": "string"
        },
        {
          "internalType": "string",
          "name": "",
          "type": "string"
        },
        {
          "internalType": "address",
          "name": "",
          "type": "address"
        },
        {
          "internalType": "string",
          "name": "",
          "type": "string"
        },
        {
          "internalType": "uint256",
          "name": "",
          "type": "uint256"
        },
        {
          "internalType": "string[]",
          "name": "",
          "type": "string[]"
        }
      ],
      "stateMutability": "view",
      "type": "function"
    },
    {
      "inputs": [
        {
          "internalType": "address",
          "name": "_address",
          "type": "address"
        }
      ],
      "name": "getStoreId",
      "outputs": [
        {
          "internalType": "uint256",
          "name": "",
          "type": "uint256"
        }
      ],
      "stateMutability": "view",
      "type": "function"
    },
    {
      "inputs": [
        {
          "internalType": "address",
          "name": "owner",
          "type": "address"
        },
        {
          "internalType": "address",
          "name": "operator",
          "type": "address"
        }
      ],
      "name": "isApprovedForAll",
      "outputs": [
        {
          "internalType": "bool",
          "name": "",
          "type": "bool"
        }
      ],
      "stateMutability": "view",
      "type": "function"
    },
    {
      "inputs": [],
      "name": "name",
      "outputs": [
        {
          "internalType": "string",
          "name": "",
          "type": "string"
        }
      ],
      "stateMutability": "view",
      "type": "function"
    },
    {
      "inputs": [
        {
          "internalType": "uint256",
          "name": "tokenId",
          "type": "uint256"
        }
      ],
      "name": "ownerOf",
      "outputs": [
        {
          "internalType": "address",
          "name": "",
          "type": "address"
        }
      ],
      "stateMutability": "view",
      "type": "function"
    },
    {
      "inputs": [
        {
          "internalType": "address",
          "name": "_storeOWner",
          "type": "address"
        }
      ],
      "name": "ownsAStore",
      "outputs": [
        {
          "internalType": "bool",
          "name": "",
          "type": "bool"
        }
      ],
      "stateMutability": "view",
      "type": "function"
    },
    {
      "inputs": [
        {
          "internalType": "address",
          "name": "from",
          "type": "address"
        },
        {
          "internalType": "address",
          "name": "to",
          "type": "address"
        },
        {
          "internalType": "uint256",
          "name": "tokenId",
          "type": "uint256"
        }
      ],
      "name": "safeTransferFrom",
      "outputs": [],
      "stateMutability": "nonpayable",
      "type": "function"
    },
    {
      "inputs": [
        {
          "internalType": "address",
          "name": "from",
          "type": "address"
        },
        {
          "internalType": "address",
          "name": "to",
          "type": "address"
        },
        {
          "internalType": "uint256",
          "name": "tokenId",
          "type": "uint256"
        },
        {
          "internalType": "bytes",
          "name": "data",
          "type": "bytes"
        }
      ],
      "name": "safeTransferFrom",
      "outputs": [],
      "stateMutability": "nonpayable",
      "type": "function"
    },
    {
      "inputs": [
        {
          "internalType": "address",
          "name": "operator",
          "type": "address"
        },
        {
          "internalType": "bool",
          "name": "approved",
          "type": "bool"
        }
      ],
      "name": "setApprovalForAll",
      "outputs": [],
      "stateMutability": "nonpayable",
      "type": "function"
    },
    {
      "inputs": [
        {
          "internalType": "bytes4",
          "name": "interfaceId",
          "type": "bytes4"
        }
      ],
      "name": "supportsInterface",
      "outputs": [
        {
          "internalType": "bool",
          "name": "",
          "type": "bool"
        }
      ],
      "stateMutability": "view",
      "type": "function"
    },
    {
      "inputs": [],
      "name": "symbol",
      "outputs": [
        {
          "internalType": "string",
          "name": "",
          "type": "string"
        }
      ],
      "stateMutability": "view",
      "type": "function"
    },
    {
      "inputs": [
        {
          "internalType": "uint256",
          "name": "tokenId",
          "type": "uint256"
        }
      ],
      "name": "tokenURI",
      "outputs": [
        {
          "internalType": "string",
          "name": "",
          "type": "string"
        }
      ],
      "stateMutability": "view",
      "type": "function"
    },
    {
      "inputs": [
        {
          "internalType": "address",
          "name": "from",
          "type": "address"
        },
        {
          "internalType": "address",
          "name": "to",
          "type": "address"
        },
        {
          "internalType": "uint256",
          "name": "tokenId",
          "type": "uint256"
        }
      ],
      "name": "transferFrom",
      "outputs": [],
      "stateMutability": "nonpayable",
      "type": "function"
    }
  ],
  "bytecode": "0x608060405260006007553480156200001657600080fd5b506040518060400160405280600b81526020017f47796d53746f72654e46540000000000000000000000000000000000000000008152506040518060400160405280600381526020017f475354000000000000000000000000000000000000000000000000000000000081525081600090805190602001906200009b929190620000bd565b508060019080519060200190620000b4929190620000bd565b505050620001d2565b828054620000cb906200019c565b90600052602060002090601f016020900481019282620000ef57600085556200013b565b82601f106200010a57805160ff19168380011785556200013b565b828001600101855582156200013b579182015b828111156200013a5782518255916020019190600101906200011d565b5b5090506200014a91906200014e565b5090565b5b80821115620001695760008160009055506001016200014f565b5090565b7f4e487b7100000000000000000000000000000000000000000000000000000000600052602260045260246000fd5b60006002820490506001821680620001b557607f821691505b60208210811415620001cc57620001cb6200016d565b5b50919050565b6134bc80620001e26000396000f3fe608060405234801561001057600080fd5b50600436106101165760003560e01c80636baf8408116100a257806395d89b411161007157806395d89b411461031b578063a22cb46514610339578063b88d4fde14610355578063c87b56dd14610371578063e985e9c5146103a157610116565b80636baf84081461026957806370a08231146102995780637cc69325146102c957806383403120146102e557610116565b80631a4ffd19116100e95780631a4ffd19146101b557806323b872dd146101d157806342842e0e146101ed5780635c96e751146102095780636352211e1461023957610116565b806301ffc9a71461011b57806306fdde031461014b578063081812fc14610169578063095ea7b314610199575b600080fd5b61013560048036038101906101309190612164565b6103d1565b60405161014291906121ac565b60405180910390f35b6101536104b3565b6040516101609190612260565b60405180910390f35b610183600480360381019061017e91906122b8565b610545565b6040516101909190612326565b60405180910390f35b6101b360048036038101906101ae919061236d565b61058b565b005b6101cf60048036038101906101ca91906125c8565b6106a3565b005b6101eb60048036038101906101e691906126cf565b6109cb565b005b610207600480360381019061020291906126cf565b610a2b565b005b610223600480360381019061021e9190612722565b610a4b565b604051610230919061275e565b60405180910390f35b610253600480360381019061024e91906122b8565b610a94565b6040516102609190612326565b60405180910390f35b610283600480360381019061027e9190612722565b610b46565b60405161029091906121ac565b60405180910390f35b6102b360048036038101906102ae9190612722565b610b9c565b6040516102c0919061275e565b60405180910390f35b6102e360048036038101906102de91906122b8565b610c54565b005b6102ff60048036038101906102fa91906122b8565b610cf8565b6040516103129796959493929190612885565b60405180910390f35b6103236110bb565b6040516103309190612260565b60405180910390f35b610353600480360381019061034e919061293c565b61114d565b005b61036f600480360381019061036a9190612a1d565b611163565b005b61038b600480360381019061038691906122b8565b6111c5565b6040516103989190612260565b60405180910390f35b6103bb60048036038101906103b69190612aa0565b6112d8565b6040516103c891906121ac565b60405180910390f35b60007f80ac58cd000000000000000000000000000000000000000000000000000000007bffffffffffffffffffffffffffffffffffffffffffffffffffffffff1916827bffffffffffffffffffffffffffffffffffffffffffffffffffffffff1916148061049c57507f5b5e139f000000000000000000000000000000000000000000000000000000007bffffffffffffffffffffffffffffffffffffffffffffffffffffffff1916827bffffffffffffffffffffffffffffffffffffffffffffffffffffffff1916145b806104ac57506104ab8261136c565b5b9050919050565b6060600080546104c290612b0f565b80601f01602080910402602001604051908101604052809291908181526020018280546104ee90612b0f565b801561053b5780601f106105105761010080835404028352916020019161053b565b820191906000526020600020905b81548152906001019060200180831161051e57829003601f168201915b5050505050905090565b6000610550826113d6565b6004600083815260200190815260200160002060009054906101000a900473ffffffffffffffffffffffffffffffffffffffff169050919050565b600061059682610a94565b90508073ffffffffffffffffffffffffffffffffffffffff168373ffffffffffffffffffffffffffffffffffffffff161415610607576040517f08c379a00000000000000000000000000000000000000000000000000000000081526004016105fe90612bb3565b60405180910390fd5b8073ffffffffffffffffffffffffffffffffffffffff16610626611421565b73ffffffffffffffffffffffffffffffffffffffff16148061065557506106548161064f611421565b6112d8565b5b610694576040517f08c379a000000000000000000000000000000000000000000000000000000000815260040161068b90612c45565b60405180910390fd5b61069e8383611429565b505050565b60001515600c60003373ffffffffffffffffffffffffffffffffffffffff1673ffffffffffffffffffffffffffffffffffffffff16815260200190815260200160002060009054906101000a900460ff16151514610736576040517f08c379a000000000000000000000000000000000000000000000000000000000815260040161072d90612cd7565b60405180910390fd5b6000600880549050905060006040518061010001604052808381526020018881526020018781526020013373ffffffffffffffffffffffffffffffffffffffff16815260200186815260200185815260200142815260200184815250905060088190806001815401808255809150506001900390600052602060002090600802016000909190919091506000820151816000015560208201518160010190805190602001906107e6929190611f91565b506040820151816002019080519060200190610803929190611f91565b5060608201518160030160006101000a81548173ffffffffffffffffffffffffffffffffffffffff021916908373ffffffffffffffffffffffffffffffffffffffff1602179055506080820151816004019080519060200190610867929190611f91565b5060a0820151816005019080519060200190610884929190611f91565b5060c0820151816006015560e08201518160070190805190602001906108ab929190612017565b5050506108ba336007546114e2565b6001600c60003373ffffffffffffffffffffffffffffffffffffffff1673ffffffffffffffffffffffffffffffffffffffff16815260200190815260200160002060006101000a81548160ff021916908315150217905550600754600b60003373ffffffffffffffffffffffffffffffffffffffff1673ffffffffffffffffffffffffffffffffffffffff1681526020019081526020016000208190555033600a600084815260200190815260200160002060006101000a81548173ffffffffffffffffffffffffffffffffffffffff021916908373ffffffffffffffffffffffffffffffffffffffff160217905550600760008154809291906109bd90612d26565b919050555050505050505050565b6109dc6109d6611421565b826116bc565b610a1b576040517f08c379a0000000000000000000000000000000000000000000000000000000008152600401610a1290612de1565b60405180910390fd5b610a26838383611751565b505050565b610a4683838360405180602001604052806000815250611163565b505050565b6000600b60008373ffffffffffffffffffffffffffffffffffffffff1673ffffffffffffffffffffffffffffffffffffffff168152602001908152602001600020549050919050565b6000806002600084815260200190815260200160002060009054906101000a900473ffffffffffffffffffffffffffffffffffffffff169050600073ffffffffffffffffffffffffffffffffffffffff168173ffffffffffffffffffffffffffffffffffffffff161415610b3d576040517f08c379a0000000000000000000000000000000000000000000000000000000008152600401610b3490612e4d565b60405180910390fd5b80915050919050565b6000600c60008373ffffffffffffffffffffffffffffffffffffffff1673ffffffffffffffffffffffffffffffffffffffff16815260200190815260200160002060009054906101000a900460ff169050919050565b60008073ffffffffffffffffffffffffffffffffffffffff168273ffffffffffffffffffffffffffffffffffffffff161415610c0d576040517f08c379a0000000000000000000000000000000000000000000000000000000008152600401610c0490612edf565b60405180910390fd5b600360008373ffffffffffffffffffffffffffffffffffffffff1673ffffffffffffffffffffffffffffffffffffffff168152602001908152602001600020549050919050565b3373ffffffffffffffffffffffffffffffffffffffff16600a600083815260200190815260200160002060009054906101000a900473ffffffffffffffffffffffffffffffffffffffff1673ffffffffffffffffffffffffffffffffffffffff1614610cbf57600080fd5b600a600082815260200190815260200160002060006101000a81549073ffffffffffffffffffffffffffffffffffffffff021916905550565b6000606080600060606000606060088881548110610d1957610d18612eff565b5b90600052602060002090600802016000015460088981548110610d3f57610d3e612eff565b5b906000526020600020906008020160010160088a81548110610d6457610d63612eff565b5b906000526020600020906008020160020160088b81548110610d8957610d88612eff565b5b906000526020600020906008020160030160009054906101000a900473ffffffffffffffffffffffffffffffffffffffff1660088c81548110610dcf57610dce612eff565b5b906000526020600020906008020160040160088d81548110610df457610df3612eff565b5b90600052602060002090600802016006015460088e81548110610e1a57610e19612eff565b5b9060005260206000209060080201600701858054610e3790612b0f565b80601f0160208091040260200160405190810160405280929190818152602001828054610e6390612b0f565b8015610eb05780601f10610e8557610100808354040283529160200191610eb0565b820191906000526020600020905b815481529060010190602001808311610e9357829003601f168201915b50505050509550848054610ec390612b0f565b80601f0160208091040260200160405190810160405280929190818152602001828054610eef90612b0f565b8015610f3c5780601f10610f1157610100808354040283529160200191610f3c565b820191906000526020600020905b815481529060010190602001808311610f1f57829003601f168201915b50505050509450828054610f4f90612b0f565b80601f0160208091040260200160405190810160405280929190818152602001828054610f7b90612b0f565b8015610fc85780601f10610f9d57610100808354040283529160200191610fc8565b820191906000526020600020905b815481529060010190602001808311610fab57829003601f168201915b5050505050925080805480602002602001604051908101604052809291908181526020016000905b8282101561109c57838290600052602060002001805461100f90612b0f565b80601f016020809104026020016040519081016040528092919081815260200182805461103b90612b0f565b80156110885780601f1061105d57610100808354040283529160200191611088565b820191906000526020600020905b81548152906001019060200180831161106b57829003601f168201915b505050505081526020019060010190610ff0565b5050505090509650965096509650965096509650919395979092949650565b6060600180546110ca90612b0f565b80601f01602080910402602001604051908101604052809291908181526020018280546110f690612b0f565b80156111435780601f1061111857610100808354040283529160200191611143565b820191906000526020600020905b81548152906001019060200180831161112657829003601f168201915b5050505050905090565b61115f611158611421565b83836119b8565b5050565b61117461116e611421565b836116bc565b6111b3576040517f08c379a00000000000000000000000000000000000000000000000000000000081526004016111aa90612de1565b60405180910390fd5b6111bf84848484611b25565b50505050565b60606111d0826113d6565b60006006600084815260200190815260200160002080546111f090612b0f565b80601f016020809104026020016040519081016040528092919081815260200182805461121c90612b0f565b80156112695780601f1061123e57610100808354040283529160200191611269565b820191906000526020600020905b81548152906001019060200180831161124c57829003601f168201915b50505050509050600061127a611b81565b90506000815114156112905781925050506112d3565b6000825111156112c55780826040516020016112ad929190612f6a565b604051602081830303815290604052925050506112d3565b6112ce84611b98565b925050505b919050565b6000600560008473ffffffffffffffffffffffffffffffffffffffff1673ffffffffffffffffffffffffffffffffffffffff16815260200190815260200160002060008373ffffffffffffffffffffffffffffffffffffffff1673ffffffffffffffffffffffffffffffffffffffff16815260200190815260200160002060009054906101000a900460ff16905092915050565b60007f01ffc9a7000000000000000000000000000000000000000000000000000000007bffffffffffffffffffffffffffffffffffffffffffffffffffffffff1916827bffffffffffffffffffffffffffffffffffffffffffffffffffffffff1916149050919050565b6113df81611c00565b61141e576040517f08c379a000000000000000000000000000000000000000000000000000000000815260040161141590612e4d565b60405180910390fd5b50565b600033905090565b816004600083815260200190815260200160002060006101000a81548173ffffffffffffffffffffffffffffffffffffffff021916908373ffffffffffffffffffffffffffffffffffffffff160217905550808273ffffffffffffffffffffffffffffffffffffffff1661149c83610a94565b73ffffffffffffffffffffffffffffffffffffffff167f8c5be1e5ebec7d5bd14f71427d1e84f3dd0314c0f7b2291e5b200ac8c7c3b92560405160405180910390a45050565b600073ffffffffffffffffffffffffffffffffffffffff168273ffffffffffffffffffffffffffffffffffffffff161415611552576040517f08c379a000000000000000000000000000000000000000000000000000000000815260040161154990612fda565b60405180910390fd5b61155b81611c00565b1561159b576040517f08c379a000000000000000000000000000000000000000000000000000000000815260040161159290613046565b60405180910390fd5b6115a760008383611c6c565b6001600360008473ffffffffffffffffffffffffffffffffffffffff1673ffffffffffffffffffffffffffffffffffffffff16815260200190815260200160002060008282546115f79190613066565b92505081905550816002600083815260200190815260200160002060006101000a81548173ffffffffffffffffffffffffffffffffffffffff021916908373ffffffffffffffffffffffffffffffffffffffff160217905550808273ffffffffffffffffffffffffffffffffffffffff16600073ffffffffffffffffffffffffffffffffffffffff167fddf252ad1be2c89b69c2b068fc378daa952ba7f163c4a11628f55a4df523b3ef60405160405180910390a46116b860008383611c71565b5050565b6000806116c883610a94565b90508073ffffffffffffffffffffffffffffffffffffffff168473ffffffffffffffffffffffffffffffffffffffff16148061170a575061170981856112d8565b5b8061174857508373ffffffffffffffffffffffffffffffffffffffff1661173084610545565b73ffffffffffffffffffffffffffffffffffffffff16145b91505092915050565b8273ffffffffffffffffffffffffffffffffffffffff1661177182610a94565b73ffffffffffffffffffffffffffffffffffffffff16146117c7576040517f08c379a00000000000000000000000000000000000000000000000000000000081526004016117be9061312e565b60405180910390fd5b600073ffffffffffffffffffffffffffffffffffffffff168273ffffffffffffffffffffffffffffffffffffffff161415611837576040517f08c379a000000000000000000000000000000000000000000000000000000000815260040161182e906131c0565b60405180910390fd5b611842838383611c6c565b61184d600082611429565b6001600360008573ffffffffffffffffffffffffffffffffffffffff1673ffffffffffffffffffffffffffffffffffffffff168152602001908152602001600020600082825461189d91906131e0565b925050819055506001600360008473ffffffffffffffffffffffffffffffffffffffff1673ffffffffffffffffffffffffffffffffffffffff16815260200190815260200160002060008282546118f49190613066565b92505081905550816002600083815260200190815260200160002060006101000a81548173ffffffffffffffffffffffffffffffffffffffff021916908373ffffffffffffffffffffffffffffffffffffffff160217905550808273ffffffffffffffffffffffffffffffffffffffff168473ffffffffffffffffffffffffffffffffffffffff167fddf252ad1be2c89b69c2b068fc378daa952ba7f163c4a11628f55a4df523b3ef60405160405180910390a46119b3838383611c71565b505050565b8173ffffffffffffffffffffffffffffffffffffffff168373ffffffffffffffffffffffffffffffffffffffff161415611a27576040517f08c379a0000000000000000000000000000000000000000000000000000000008152600401611a1e90613260565b60405180910390fd5b80600560008573ffffffffffffffffffffffffffffffffffffffff1673ffffffffffffffffffffffffffffffffffffffff16815260200190815260200160002060008473ffffffffffffffffffffffffffffffffffffffff1673ffffffffffffffffffffffffffffffffffffffff16815260200190815260200160002060006101000a81548160ff0219169083151502179055508173ffffffffffffffffffffffffffffffffffffffff168373ffffffffffffffffffffffffffffffffffffffff167f17307eab39ab6107e8899845ad3d59bd9653f200f220920489ca2b5937696c3183604051611b1891906121ac565b60405180910390a3505050565b611b30848484611751565b611b3c84848484611c76565b611b7b576040517f08c379a0000000000000000000000000000000000000000000000000000000008152600401611b72906132f2565b60405180910390fd5b50505050565b606060405180602001604052806000815250905090565b6060611ba3826113d6565b6000611bad611b81565b90506000815111611bcd5760405180602001604052806000815250611bf8565b80611bd784611e0d565b604051602001611be8929190612f6a565b6040516020818303038152906040525b915050919050565b60008073ffffffffffffffffffffffffffffffffffffffff166002600084815260200190815260200160002060009054906101000a900473ffffffffffffffffffffffffffffffffffffffff1673ffffffffffffffffffffffffffffffffffffffff1614159050919050565b505050565b505050565b6000611c978473ffffffffffffffffffffffffffffffffffffffff16611f6e565b15611e00578373ffffffffffffffffffffffffffffffffffffffff1663150b7a02611cc0611421565b8786866040518563ffffffff1660e01b8152600401611ce29493929190613367565b602060405180830381600087803b158015611cfc57600080fd5b505af1925050508015611d2d57506040513d601f19601f82011682018060405250810190611d2a91906133c8565b60015b611db0573d8060008114611d5d576040519150601f19603f3d011682016040523d82523d6000602084013e611d62565b606091505b50600081511415611da8576040517f08c379a0000000000000000000000000000000000000000000000000000000008152600401611d9f906132f2565b60405180910390fd5b805181602001fd5b63150b7a0260e01b7bffffffffffffffffffffffffffffffffffffffffffffffffffffffff1916817bffffffffffffffffffffffffffffffffffffffffffffffffffffffff191614915050611e05565b600190505b949350505050565b60606000821415611e55576040518060400160405280600181526020017f30000000000000000000000000000000000000000000000000000000000000008152509050611f69565b600082905060005b60008214611e87578080611e7090612d26565b915050600a82611e809190613424565b9150611e5d565b60008167ffffffffffffffff811115611ea357611ea26123b7565b5b6040519080825280601f01601f191660200182016040528015611ed55781602001600182028036833780820191505090505b5090505b60008514611f6257600182611eee91906131e0565b9150600a85611efd9190613455565b6030611f099190613066565b60f81b818381518110611f1f57611f1e612eff565b5b60200101907effffffffffffffffffffffffffffffffffffffffffffffffffffffffffffff1916908160001a905350600a85611f5b9190613424565b9450611ed9565b8093505050505b919050565b6000808273ffffffffffffffffffffffffffffffffffffffff163b119050919050565b828054611f9d90612b0f565b90600052602060002090601f016020900481019282611fbf5760008555612006565b82601f10611fd857805160ff1916838001178555612006565b82800160010185558215612006579182015b82811115612005578251825591602001919060010190611fea565b5b5090506120139190612077565b5090565b828054828255906000526020600020908101928215612066579160200282015b82811115612065578251829080519060200190612055929190611f91565b5091602001919060010190612037565b5b5090506120739190612094565b5090565b5b80821115612090576000816000905550600101612078565b5090565b5b808211156120b457600081816120ab91906120b8565b50600101612095565b5090565b5080546120c490612b0f565b6000825580601f106120d657506120f5565b601f0160209004906000526020600020908101906120f49190612077565b5b50565b6000604051905090565b600080fd5b600080fd5b60007fffffffff0000000000000000000000000000000000000000000000000000000082169050919050565b6121418161210c565b811461214c57600080fd5b50565b60008135905061215e81612138565b92915050565b60006020828403121561217a57612179612102565b5b60006121888482850161214f565b91505092915050565b60008115159050919050565b6121a681612191565b82525050565b60006020820190506121c1600083018461219d565b92915050565b600081519050919050565b600082825260208201905092915050565b60005b838110156122015780820151818401526020810190506121e6565b83811115612210576000848401525b50505050565b6000601f19601f8301169050919050565b6000612232826121c7565b61223c81856121d2565b935061224c8185602086016121e3565b61225581612216565b840191505092915050565b6000602082019050818103600083015261227a8184612227565b905092915050565b6000819050919050565b61229581612282565b81146122a057600080fd5b50565b6000813590506122b28161228c565b92915050565b6000602082840312156122ce576122cd612102565b5b60006122dc848285016122a3565b91505092915050565b600073ffffffffffffffffffffffffffffffffffffffff82169050919050565b6000612310826122e5565b9050919050565b61232081612305565b82525050565b600060208201905061233b6000830184612317565b92915050565b61234a81612305565b811461235557600080fd5b50565b60008135905061236781612341565b92915050565b6000806040838503121561238457612383612102565b5b600061239285828601612358565b92505060206123a3858286016122a3565b9150509250929050565b600080fd5b600080fd5b7f4e487b7100000000000000000000000000000000000000000000000000000000600052604160045260246000fd5b6123ef82612216565b810181811067ffffffffffffffff8211171561240e5761240d6123b7565b5b80604052505050565b60006124216120f8565b905061242d82826123e6565b919050565b600067ffffffffffffffff82111561244d5761244c6123b7565b5b61245682612216565b9050602081019050919050565b82818337600083830152505050565b600061248561248084612432565b612417565b9050828152602081018484840111156124a1576124a06123b2565b5b6124ac848285612463565b509392505050565b600082601f8301126124c9576124c86123ad565b5b81356124d9848260208601612472565b91505092915050565b600067ffffffffffffffff8211156124fd576124fc6123b7565b5b602082029050602081019050919050565b600080fd5b6000612526612521846124e2565b612417565b905080838252602082019050602084028301858111156125495761254861250e565b5b835b8181101561259057803567ffffffffffffffff81111561256e5761256d6123ad565b5b80860161257b89826124b4565b8552602085019450505060208101905061254b565b5050509392505050565b600082601f8301126125af576125ae6123ad565b5b81356125bf848260208601612513565b91505092915050565b600080600080600060a086880312156125e4576125e3612102565b5b600086013567ffffffffffffffff81111561260257612601612107565b5b61260e888289016124b4565b955050602086013567ffffffffffffffff81111561262f5761262e612107565b5b61263b888289016124b4565b945050604086013567ffffffffffffffff81111561265c5761265b612107565b5b612668888289016124b4565b935050606086013567ffffffffffffffff81111561268957612688612107565b5b612695888289016124b4565b925050608086013567ffffffffffffffff8111156126b6576126b5612107565b5b6126c28882890161259a565b9150509295509295909350565b6000806000606084860312156126e8576126e7612102565b5b60006126f686828701612358565b935050602061270786828701612358565b9250506040612718868287016122a3565b9150509250925092565b60006020828403121561273857612737612102565b5b600061274684828501612358565b91505092915050565b61275881612282565b82525050565b6000602082019050612773600083018461274f565b92915050565b600081519050919050565b600082825260208201905092915050565b6000819050602082019050919050565b600082825260208201905092915050565b60006127c1826121c7565b6127cb81856127a5565b93506127db8185602086016121e3565b6127e481612216565b840191505092915050565b60006127fb83836127b6565b905092915050565b6000602082019050919050565b600061281b82612779565b6128258185612784565b93508360208202850161283785612795565b8060005b85811015612873578484038952815161285485826127ef565b945061285f83612803565b925060208a0199505060018101905061283b565b50829750879550505050505092915050565b600060e08201905061289a600083018a61274f565b81810360208301526128ac8189612227565b905081810360408301526128c08188612227565b90506128cf6060830187612317565b81810360808301526128e18186612227565b90506128f060a083018561274f565b81810360c08301526129028184612810565b905098975050505050505050565b61291981612191565b811461292457600080fd5b50565b60008135905061293681612910565b92915050565b6000806040838503121561295357612952612102565b5b600061296185828601612358565b925050602061297285828601612927565b9150509250929050565b600067ffffffffffffffff821115612997576129966123b7565b5b6129a082612216565b9050602081019050919050565b60006129c06129bb8461297c565b612417565b9050828152602081018484840111156129dc576129db6123b2565b5b6129e7848285612463565b509392505050565b600082601f830112612a0457612a036123ad565b5b8135612a148482602086016129ad565b91505092915050565b60008060008060808587031215612a3757612a36612102565b5b6000612a4587828801612358565b9450506020612a5687828801612358565b9350506040612a67878288016122a3565b925050606085013567ffffffffffffffff811115612a8857612a87612107565b5b612a94878288016129ef565b91505092959194509250565b60008060408385031215612ab757612ab6612102565b5b6000612ac585828601612358565b9250506020612ad685828601612358565b9150509250929050565b7f4e487b7100000000000000000000000000000000000000000000000000000000600052602260045260246000fd5b60006002820490506001821680612b2757607f821691505b60208210811415612b3b57612b3a612ae0565b5b50919050565b7f4552433732313a20617070726f76616c20746f2063757272656e74206f776e6560008201527f7200000000000000000000000000000000000000000000000000000000000000602082015250565b6000612b9d6021836121d2565b9150612ba882612b41565b604082019050919050565b60006020820190508181036000830152612bcc81612b90565b9050919050565b7f4552433732313a20617070726f76652063616c6c6572206973206e6f7420746f60008201527f6b656e206f776e6572206e6f7220617070726f76656420666f7220616c6c0000602082015250565b6000612c2f603e836121d2565b9150612c3a82612bd3565b604082019050919050565b60006020820190508181036000830152612c5e81612c22565b9050919050565b7f596f7520616c7265616479206861766520612073746f726520696e20706c616360008201527f6500000000000000000000000000000000000000000000000000000000000000602082015250565b6000612cc16021836121d2565b9150612ccc82612c65565b604082019050919050565b60006020820190508181036000830152612cf081612cb4565b9050919050565b7f4e487b7100000000000000000000000000000000000000000000000000000000600052601160045260246000fd5b6000612d3182612282565b91507fffffffffffffffffffffffffffffffffffffffffffffffffffffffffffffffff821415612d6457612d63612cf7565b5b600182019050919050565b7f4552433732313a2063616c6c6572206973206e6f7420746f6b656e206f776e6560008201527f72206e6f7220617070726f766564000000000000000000000000000000000000602082015250565b6000612dcb602e836121d2565b9150612dd682612d6f565b604082019050919050565b60006020820190508181036000830152612dfa81612dbe565b9050919050565b7f4552433732313a20696e76616c696420746f6b656e2049440000000000000000600082015250565b6000612e376018836121d2565b9150612e4282612e01565b602082019050919050565b60006020820190508181036000830152612e6681612e2a565b9050919050565b7f4552433732313a2061646472657373207a65726f206973206e6f74206120766160008201527f6c6964206f776e65720000000000000000000000000000000000000000000000602082015250565b6000612ec96029836121d2565b9150612ed482612e6d565b604082019050919050565b60006020820190508181036000830152612ef881612ebc565b9050919050565b7f4e487b7100000000000000000000000000000000000000000000000000000000600052603260045260246000fd5b600081905092915050565b6000612f44826121c7565b612f4e8185612f2e565b9350612f5e8185602086016121e3565b80840191505092915050565b6000612f768285612f39565b9150612f828284612f39565b91508190509392505050565b7f4552433732313a206d696e7420746f20746865207a65726f2061646472657373600082015250565b6000612fc46020836121d2565b9150612fcf82612f8e565b602082019050919050565b60006020820190508181036000830152612ff381612fb7565b9050919050565b7f4552433732313a20746f6b656e20616c7265616479206d696e74656400000000600082015250565b6000613030601c836121d2565b915061303b82612ffa565b602082019050919050565b6000602082019050818103600083015261305f81613023565b9050919050565b600061307182612282565b915061307c83612282565b9250827fffffffffffffffffffffffffffffffffffffffffffffffffffffffffffffffff038211156130b1576130b0612cf7565b5b828201905092915050565b7f4552433732313a207472616e736665722066726f6d20696e636f72726563742060008201527f6f776e6572000000000000000000000000000000000000000000000000000000602082015250565b60006131186025836121d2565b9150613123826130bc565b604082019050919050565b600060208201905081810360008301526131478161310b565b9050919050565b7f4552433732313a207472616e7366657220746f20746865207a65726f2061646460008201527f7265737300000000000000000000000000000000000000000000000000000000602082015250565b60006131aa6024836121d2565b91506131b58261314e565b604082019050919050565b600060208201905081810360008301526131d98161319d565b9050919050565b60006131eb82612282565b91506131f683612282565b92508282101561320957613208612cf7565b5b828203905092915050565b7f4552433732313a20617070726f766520746f2063616c6c657200000000000000600082015250565b600061324a6019836121d2565b915061325582613214565b602082019050919050565b600060208201905081810360008301526132798161323d565b9050919050565b7f4552433732313a207472616e7366657220746f206e6f6e20455243373231526560008201527f63656976657220696d706c656d656e7465720000000000000000000000000000602082015250565b60006132dc6032836121d2565b91506132e782613280565b604082019050919050565b6000602082019050818103600083015261330b816132cf565b9050919050565b600081519050919050565b600082825260208201905092915050565b600061333982613312565b613343818561331d565b93506133538185602086016121e3565b61335c81612216565b840191505092915050565b600060808201905061337c6000830187612317565b6133896020830186612317565b613396604083018561274f565b81810360608301526133a8818461332e565b905095945050505050565b6000815190506133c281612138565b92915050565b6000602082840312156133de576133dd612102565b5b60006133ec848285016133b3565b91505092915050565b7f4e487b7100000000000000000000000000000000000000000000000000000000600052601260045260246000fd5b600061342f82612282565b915061343a83612282565b92508261344a576134496133f5565b5b828204905092915050565b600061346082612282565b915061346b83612282565b92508261347b5761347a6133f5565b5b82820690509291505056fea2646970667358221220c8b9c9edd33fe3132cd4585816de1e8baf5626ae4c72ac9ddbbacfe96b73678464736f6c63430008090033",
  "linkReferences": {},
  "deployedLinkReferences": {}
}