{
  "_format": "hh-sol-artifact-1",
  "contractName": "StoreSubscription",
  "sourceName": "contracts/StoreSubscription.sol",
  "abi": [
    {
      "inputs": [
        {
          "internalType": "address",
          "name": "gymStoreContract",
          "type": "address"
        }
      ],
      "stateMutability": "nonpayable",
      "type": "constructor"
    },
    {
      "anonymous": false,
      "inputs": [
        {
          "indexed": true,
          "internalType": "address",
          "name": "owner",
          "type": "address"
        },
        {
          "indexed": true,
          "internalType": "address",
          "name": "approved",
          "type": "address"
        },
        {
          "indexed": true,
          "internalType": "uint256",
          "name": "tokenId",
          "type": "uint256"
        }
      ],
      "name": "Approval",
      "type": "event"
    },
    {
      "anonymous": false,
      "inputs": [
        {
          "indexed": true,
          "internalType": "address",
          "name": "owner",
          "type": "address"
        },
        {
          "indexed": true,
          "internalType": "address",
          "name": "operator",
          "type": "address"
        },
        {
          "indexed": false,
          "internalType": "bool",
          "name": "approved",
          "type": "bool"
        }
      ],
      "name": "ApprovalForAll",
      "type": "event"
    },
    {
      "anonymous": false,
      "inputs": [
        {
          "indexed": true,
          "internalType": "address",
          "name": "from",
          "type": "address"
        },
        {
          "indexed": true,
          "internalType": "address",
          "name": "to",
          "type": "address"
        },
        {
          "indexed": true,
          "internalType": "uint256",
          "name": "tokenId",
          "type": "uint256"
        }
      ],
      "name": "Transfer",
      "type": "event"
    },
    {
      "inputs": [
        {
          "internalType": "address",
          "name": "to",
          "type": "address"
        },
        {
          "internalType": "uint256",
          "name": "tokenId",
          "type": "uint256"
        }
      ],
      "name": "approve",
      "outputs": [],
      "stateMutability": "nonpayable",
      "type": "function"
    },
    {
      "inputs": [
        {
          "internalType": "address",
          "name": "owner",
          "type": "address"
        }
      ],
      "name": "balanceOf",
      "outputs": [
        {
          "internalType": "uint256",
          "name": "",
          "type": "uint256"
        }
      ],
      "stateMutability": "view",
      "type": "function"
    },
    {
      "inputs": [
        {
          "internalType": "string",
          "name": "ipfsHash",
          "type": "string"
        },
        {
          "internalType": "uint256",
          "name": "invalidAfter",
          "type": "uint256"
        }
      ],
      "name": "createSubscription",
      "outputs": [],
      "stateMutability": "nonpayable",
      "type": "function"
    },
    {
      "inputs": [
        {
          "internalType": "uint256",
          "name": "tokenId",
          "type": "uint256"
        }
      ],
      "name": "getApproved",
      "outputs": [
        {
          "internalType": "address",
          "name": "",
          "type": "address"
        }
      ],
      "stateMutability": "view",
      "type": "function"
    },
    {
      "inputs": [
        {
          "internalType": "address",
          "name": "userAddr",
          "type": "address"
        }
      ],
      "name": "hasStoreSubscription",
      "outputs": [
        {
          "internalType": "bool",
          "name": "",
          "type": "bool"
        }
      ],
      "stateMutability": "view",
      "type": "function"
    },
    {
      "inputs": [
        {
          "internalType": "address",
          "name": "owner",
          "type": "address"
        },
        {
          "internalType": "address",
          "name": "operator",
          "type": "address"
        }
      ],
      "name": "isApprovedForAll",
      "outputs": [
        {
          "internalType": "bool",
          "name": "",
          "type": "bool"
        }
      ],
      "stateMutability": "view",
      "type": "function"
    },
    {
      "inputs": [],
      "name": "name",
      "outputs": [
        {
          "internalType": "string",
          "name": "",
          "type": "string"
        }
      ],
      "stateMutability": "view",
      "type": "function"
    },
    {
      "inputs": [
        {
          "internalType": "uint256",
          "name": "tokenId",
          "type": "uint256"
        }
      ],
      "name": "ownerOf",
      "outputs": [
        {
          "internalType": "address",
          "name": "",
          "type": "address"
        }
      ],
      "stateMutability": "view",
      "type": "function"
    },
    {
      "inputs": [
        {
          "internalType": "address",
          "name": "from",
          "type": "address"
        },
        {
          "internalType": "address",
          "name": "to",
          "type": "address"
        },
        {
          "internalType": "uint256",
          "name": "tokenId",
          "type": "uint256"
        }
      ],
      "name": "safeTransferFrom",
      "outputs": [],
      "stateMutability": "nonpayable",
      "type": "function"
    },
    {
      "inputs": [
        {
          "internalType": "address",
          "name": "from",
          "type": "address"
        },
        {
          "internalType": "address",
          "name": "to",
          "type": "address"
        },
        {
          "internalType": "uint256",
          "name": "tokenId",
          "type": "uint256"
        },
        {
          "internalType": "bytes",
          "name": "data",
          "type": "bytes"
        }
      ],
      "name": "safeTransferFrom",
      "outputs": [],
      "stateMutability": "nonpayable",
      "type": "function"
    },
    {
      "inputs": [
        {
          "internalType": "address",
          "name": "operator",
          "type": "address"
        },
        {
          "internalType": "bool",
          "name": "approved",
          "type": "bool"
        }
      ],
      "name": "setApprovalForAll",
      "outputs": [],
      "stateMutability": "nonpayable",
      "type": "function"
    },
    {
      "inputs": [
        {
          "internalType": "bytes4",
          "name": "interfaceId",
          "type": "bytes4"
        }
      ],
      "name": "supportsInterface",
      "outputs": [
        {
          "internalType": "bool",
          "name": "",
          "type": "bool"
        }
      ],
      "stateMutability": "view",
      "type": "function"
    },
    {
      "inputs": [],
      "name": "symbol",
      "outputs": [
        {
          "internalType": "string",
          "name": "",
          "type": "string"
        }
      ],
      "stateMutability": "view",
      "type": "function"
    },
    {
      "inputs": [
        {
          "internalType": "uint256",
          "name": "tokenId",
          "type": "uint256"
        }
      ],
      "name": "tokenURI",
      "outputs": [
        {
          "internalType": "string",
          "name": "",
          "type": "string"
        }
      ],
      "stateMutability": "view",
      "type": "function"
    },
    {
      "inputs": [
        {
          "internalType": "address",
          "name": "from",
          "type": "address"
        },
        {
          "internalType": "address",
          "name": "to",
          "type": "address"
        },
        {
          "internalType": "uint256",
          "name": "tokenId",
          "type": "uint256"
        }
      ],
      "name": "transferFrom",
      "outputs": [],
      "stateMutability": "nonpayable",
      "type": "function"
    },
    {
      "inputs": [
        {
          "internalType": "uint256",
          "name": "sId",
          "type": "uint256"
        },
        {
          "internalType": "address",
          "name": "transferAddr",
          "type": "address"
        }
      ],
      "name": "transferSubscription",
      "outputs": [
        {
          "internalType": "bool",
          "name": "",
          "type": "bool"
        }
      ],
      "stateMutability": "nonpayable",
      "type": "function"
    }
  ],
  "bytecode": "0x608060405260006008553480156200001657600080fd5b5060405162002d6f38038062002d6f83398181016040528101906200003c91906200023e565b6040518060400160405280600b81526020017f53657276696365204e46540000000000000000000000000000000000000000008152506040518060400160405280600381526020017f53465400000000000000000000000000000000000000000000000000000000008152508160009080519060200190620000c092919062000124565b508060019080519060200190620000d992919062000124565b50505080600760006101000a81548173ffffffffffffffffffffffffffffffffffffffff021916908373ffffffffffffffffffffffffffffffffffffffff16021790555050620002d5565b82805462000132906200029f565b90600052602060002090601f016020900481019282620001565760008555620001a2565b82601f106200017157805160ff1916838001178555620001a2565b82800160010185558215620001a2579182015b82811115620001a157825182559160200191906001019062000184565b5b509050620001b19190620001b5565b5090565b5b80821115620001d0576000816000905550600101620001b6565b5090565b600080fd5b600073ffffffffffffffffffffffffffffffffffffffff82169050919050565b60006200020682620001d9565b9050919050565b6200021881620001f9565b81146200022457600080fd5b50565b60008151905062000238816200020d565b92915050565b600060208284031215620002575762000256620001d4565b5b6000620002678482850162000227565b91505092915050565b7f4e487b7100000000000000000000000000000000000000000000000000000000600052602260045260246000fd5b60006002820490506001821680620002b857607f821691505b60208210811415620002cf57620002ce62000270565b5b50919050565b612a8a80620002e56000396000f3fe608060405234801561001057600080fd5b50600436106101005760003560e01c80636352211e11610097578063a22cb46511610066578063a22cb465146102d1578063b88d4fde146102ed578063c87b56dd14610309578063e985e9c51461033957610100565b80636352211e1461022357806370a082311461025357806395d89b4114610283578063a0ed6bc6146102a157610100565b806323b872dd116100d357806323b872dd1461019f578063248bacc6146101bb57806342842e0e146101d75780636195b657146101f357610100565b806301ffc9a71461010557806306fdde0314610135578063081812fc14610153578063095ea7b314610183575b600080fd5b61011f600480360381019061011a9190611aac565b610369565b60405161012c9190611af4565b60405180910390f35b61013d61044b565b60405161014a9190611ba8565b60405180910390f35b61016d60048036038101906101689190611c00565b6104dd565b60405161017a9190611c6e565b60405180910390f35b61019d60048036038101906101989190611cb5565b610523565b005b6101b960048036038101906101b49190611cf5565b61063b565b005b6101d560048036038101906101d09190611e7d565b61069b565b005b6101f160048036038101906101ec9190611cf5565b6107c0565b005b61020d60048036038101906102089190611ed9565b6107e0565b60405161021a9190611af4565b60405180910390f35b61023d60048036038101906102389190611c00565b610892565b60405161024a9190611c6e565b60405180910390f35b61026d60048036038101906102689190611ed9565b610944565b60405161027a9190611f15565b60405180910390f35b61028b6109fc565b6040516102989190611ba8565b60405180910390f35b6102bb60048036038101906102b69190611f30565b610a8e565b6040516102c89190611af4565b60405180910390f35b6102eb60048036038101906102e69190611f9c565b610b59565b005b6103076004803603810190610302919061207d565b610b6f565b005b610323600480360381019061031e9190611c00565b610bd1565b6040516103309190611ba8565b60405180910390f35b610353600480360381019061034e9190612100565b610ce4565b6040516103609190611af4565b60405180910390f35b60007f80ac58cd000000000000000000000000000000000000000000000000000000007bffffffffffffffffffffffffffffffffffffffffffffffffffffffff1916827bffffffffffffffffffffffffffffffffffffffffffffffffffffffff1916148061043457507f5b5e139f000000000000000000000000000000000000000000000000000000007bffffffffffffffffffffffffffffffffffffffffffffffffffffffff1916827bffffffffffffffffffffffffffffffffffffffffffffffffffffffff1916145b80610444575061044382610d78565b5b9050919050565b60606000805461045a9061216f565b80601f01602080910402602001604051908101604052809291908181526020018280546104869061216f565b80156104d35780601f106104a8576101008083540402835291602001916104d3565b820191906000526020600020905b8154815290600101906020018083116104b657829003601f168201915b5050505050905090565b60006104e882610de2565b6004600083815260200190815260200160002060009054906101000a900473ffffffffffffffffffffffffffffffffffffffff169050919050565b600061052e82610892565b90508073ffffffffffffffffffffffffffffffffffffffff168373ffffffffffffffffffffffffffffffffffffffff16141561059f576040517f08c379a000000000000000000000000000000000000000000000000000000000815260040161059690612213565b60405180910390fd5b8073ffffffffffffffffffffffffffffffffffffffff166105be610e2d565b73ffffffffffffffffffffffffffffffffffffffff1614806105ed57506105ec816105e7610e2d565b610ce4565b5b61062c576040517f08c379a0000000000000000000000000000000000000000000000000000000008152600401610623906122a5565b60405180910390fd5b6106368383610e35565b505050565b61064c610646610e2d565b82610eee565b61068b576040517f08c379a000000000000000000000000000000000000000000000000000000000815260040161068290612337565b60405180910390fd5b610696838383610f83565b505050565b6000600980549050905060006040518060a001604052808381526020018581526020013373ffffffffffffffffffffffffffffffffffffffff168152602001428152602001848152509050600981908060018154018082558091505060019003906000526020600020906005020160009091909190915060008201518160000155602082015181600101908051906020019061073892919061199d565b5060408201518160020160006101000a81548173ffffffffffffffffffffffffffffffffffffffff021916908373ffffffffffffffffffffffffffffffffffffffff160217905550606082015181600301556080820151816004015550506107a2336008546111ea565b600860008154809291906107b590612386565b919050555050505050565b6107db83838360405180602001604052806000815250610b6f565b505050565b600080600090505b6008548111610887578273ffffffffffffffffffffffffffffffffffffffff166009828154811061081c5761081b6123cf565b5b906000526020600020906005020160020160009054906101000a900473ffffffffffffffffffffffffffffffffffffffff1673ffffffffffffffffffffffffffffffffffffffff16141561087457600191505061088d565b808061087f90612386565b9150506107e8565b50600090505b919050565b6000806002600084815260200190815260200160002060009054906101000a900473ffffffffffffffffffffffffffffffffffffffff169050600073ffffffffffffffffffffffffffffffffffffffff168173ffffffffffffffffffffffffffffffffffffffff16141561093b576040517f08c379a00000000000000000000000000000000000000000000000000000000081526004016109329061244a565b60405180910390fd5b80915050919050565b60008073ffffffffffffffffffffffffffffffffffffffff168273ffffffffffffffffffffffffffffffffffffffff1614156109b5576040517f08c379a00000000000000000000000000000000000000000000000000000000081526004016109ac906124dc565b60405180910390fd5b600360008373ffffffffffffffffffffffffffffffffffffffff1673ffffffffffffffffffffffffffffffffffffffff168152602001908152602001600020549050919050565b606060018054610a0b9061216f565b80601f0160208091040260200160405190810160405280929190818152602001828054610a379061216f565b8015610a845780601f10610a5957610100808354040283529160200191610a84565b820191906000526020600020905b815481529060010190602001808311610a6757829003601f168201915b5050505050905090565b600080600090505b6008548111610b4d578360098281548110610ab457610ab36123cf565b5b9060005260206000209060050201600001541415610b3a578260098281548110610ae157610ae06123cf565b5b906000526020600020906005020160020160006101000a81548173ffffffffffffffffffffffffffffffffffffffff021916908373ffffffffffffffffffffffffffffffffffffffff1602179055506001915050610b53565b8080610b4590612386565b915050610a96565b50600090505b92915050565b610b6b610b64610e2d565b83836113c4565b5050565b610b80610b7a610e2d565b83610eee565b610bbf576040517f08c379a0000000000000000000000000000000000000000000000000000000008152600401610bb690612337565b60405180910390fd5b610bcb84848484611531565b50505050565b6060610bdc82610de2565b6000600660008481526020019081526020016000208054610bfc9061216f565b80601f0160208091040260200160405190810160405280929190818152602001828054610c289061216f565b8015610c755780601f10610c4a57610100808354040283529160200191610c75565b820191906000526020600020905b815481529060010190602001808311610c5857829003601f168201915b505050505090506000610c8661158d565b9050600081511415610c9c578192505050610cdf565b600082511115610cd1578082604051602001610cb9929190612538565b60405160208183030381529060405292505050610cdf565b610cda846115a4565b925050505b919050565b6000600560008473ffffffffffffffffffffffffffffffffffffffff1673ffffffffffffffffffffffffffffffffffffffff16815260200190815260200160002060008373ffffffffffffffffffffffffffffffffffffffff1673ffffffffffffffffffffffffffffffffffffffff16815260200190815260200160002060009054906101000a900460ff16905092915050565b60007f01ffc9a7000000000000000000000000000000000000000000000000000000007bffffffffffffffffffffffffffffffffffffffffffffffffffffffff1916827bffffffffffffffffffffffffffffffffffffffffffffffffffffffff1916149050919050565b610deb8161160c565b610e2a576040517f08c379a0000000000000000000000000000000000000000000000000000000008152600401610e219061244a565b60405180910390fd5b50565b600033905090565b816004600083815260200190815260200160002060006101000a81548173ffffffffffffffffffffffffffffffffffffffff021916908373ffffffffffffffffffffffffffffffffffffffff160217905550808273ffffffffffffffffffffffffffffffffffffffff16610ea883610892565b73ffffffffffffffffffffffffffffffffffffffff167f8c5be1e5ebec7d5bd14f71427d1e84f3dd0314c0f7b2291e5b200ac8c7c3b92560405160405180910390a45050565b600080610efa83610892565b90508073ffffffffffffffffffffffffffffffffffffffff168473ffffffffffffffffffffffffffffffffffffffff161480610f3c5750610f3b8185610ce4565b5b80610f7a57508373ffffffffffffffffffffffffffffffffffffffff16610f62846104dd565b73ffffffffffffffffffffffffffffffffffffffff16145b91505092915050565b8273ffffffffffffffffffffffffffffffffffffffff16610fa382610892565b73ffffffffffffffffffffffffffffffffffffffff1614610ff9576040517f08c379a0000000000000000000000000000000000000000000000000000000008152600401610ff0906125ce565b60405180910390fd5b600073ffffffffffffffffffffffffffffffffffffffff168273ffffffffffffffffffffffffffffffffffffffff161415611069576040517f08c379a000000000000000000000000000000000000000000000000000000000815260040161106090612660565b60405180910390fd5b611074838383611678565b61107f600082610e35565b6001600360008573ffffffffffffffffffffffffffffffffffffffff1673ffffffffffffffffffffffffffffffffffffffff16815260200190815260200160002060008282546110cf9190612680565b925050819055506001600360008473ffffffffffffffffffffffffffffffffffffffff1673ffffffffffffffffffffffffffffffffffffffff168152602001908152602001600020600082825461112691906126b4565b92505081905550816002600083815260200190815260200160002060006101000a81548173ffffffffffffffffffffffffffffffffffffffff021916908373ffffffffffffffffffffffffffffffffffffffff160217905550808273ffffffffffffffffffffffffffffffffffffffff168473ffffffffffffffffffffffffffffffffffffffff167fddf252ad1be2c89b69c2b068fc378daa952ba7f163c4a11628f55a4df523b3ef60405160405180910390a46111e583838361167d565b505050565b600073ffffffffffffffffffffffffffffffffffffffff168273ffffffffffffffffffffffffffffffffffffffff16141561125a576040517f08c379a000000000000000000000000000000000000000000000000000000000815260040161125190612756565b60405180910390fd5b6112638161160c565b156112a3576040517f08c379a000000000000000000000000000000000000000000000000000000000815260040161129a906127c2565b60405180910390fd5b6112af60008383611678565b6001600360008473ffffffffffffffffffffffffffffffffffffffff1673ffffffffffffffffffffffffffffffffffffffff16815260200190815260200160002060008282546112ff91906126b4565b92505081905550816002600083815260200190815260200160002060006101000a81548173ffffffffffffffffffffffffffffffffffffffff021916908373ffffffffffffffffffffffffffffffffffffffff160217905550808273ffffffffffffffffffffffffffffffffffffffff16600073ffffffffffffffffffffffffffffffffffffffff167fddf252ad1be2c89b69c2b068fc378daa952ba7f163c4a11628f55a4df523b3ef60405160405180910390a46113c06000838361167d565b5050565b8173ffffffffffffffffffffffffffffffffffffffff168373ffffffffffffffffffffffffffffffffffffffff161415611433576040517f08c379a000000000000000000000000000000000000000000000000000000000815260040161142a9061282e565b60405180910390fd5b80600560008573ffffffffffffffffffffffffffffffffffffffff1673ffffffffffffffffffffffffffffffffffffffff16815260200190815260200160002060008473ffffffffffffffffffffffffffffffffffffffff1673ffffffffffffffffffffffffffffffffffffffff16815260200190815260200160002060006101000a81548160ff0219169083151502179055508173ffffffffffffffffffffffffffffffffffffffff168373ffffffffffffffffffffffffffffffffffffffff167f17307eab39ab6107e8899845ad3d59bd9653f200f220920489ca2b5937696c31836040516115249190611af4565b60405180910390a3505050565b61153c848484610f83565b61154884848484611682565b611587576040517f08c379a000000000000000000000000000000000000000000000000000000000815260040161157e906128c0565b60405180910390fd5b50505050565b606060405180602001604052806000815250905090565b60606115af82610de2565b60006115b961158d565b905060008151116115d95760405180602001604052806000815250611604565b806115e384611819565b6040516020016115f4929190612538565b6040516020818303038152906040525b915050919050565b60008073ffffffffffffffffffffffffffffffffffffffff166002600084815260200190815260200160002060009054906101000a900473ffffffffffffffffffffffffffffffffffffffff1673ffffffffffffffffffffffffffffffffffffffff1614159050919050565b505050565b505050565b60006116a38473ffffffffffffffffffffffffffffffffffffffff1661197a565b1561180c578373ffffffffffffffffffffffffffffffffffffffff1663150b7a026116cc610e2d565b8786866040518563ffffffff1660e01b81526004016116ee9493929190612935565b602060405180830381600087803b15801561170857600080fd5b505af192505050801561173957506040513d601f19601f820116820180604052508101906117369190612996565b60015b6117bc573d8060008114611769576040519150601f19603f3d011682016040523d82523d6000602084013e61176e565b606091505b506000815114156117b4576040517f08c379a00000000000000000000000000000000000000000000000000000000081526004016117ab906128c0565b60405180910390fd5b805181602001fd5b63150b7a0260e01b7bffffffffffffffffffffffffffffffffffffffffffffffffffffffff1916817bffffffffffffffffffffffffffffffffffffffffffffffffffffffff191614915050611811565b600190505b949350505050565b60606000821415611861576040518060400160405280600181526020017f30000000000000000000000000000000000000000000000000000000000000008152509050611975565b600082905060005b6000821461189357808061187c90612386565b915050600a8261188c91906129f2565b9150611869565b60008167ffffffffffffffff8111156118af576118ae611d52565b5b6040519080825280601f01601f1916602001820160405280156118e15781602001600182028036833780820191505090505b5090505b6000851461196e576001826118fa9190612680565b9150600a856119099190612a23565b603061191591906126b4565b60f81b81838151811061192b5761192a6123cf565b5b60200101907effffffffffffffffffffffffffffffffffffffffffffffffffffffffffffff1916908160001a905350600a8561196791906129f2565b94506118e5565b8093505050505b919050565b6000808273ffffffffffffffffffffffffffffffffffffffff163b119050919050565b8280546119a99061216f565b90600052602060002090601f0160209004810192826119cb5760008555611a12565b82601f106119e457805160ff1916838001178555611a12565b82800160010185558215611a12579182015b82811115611a115782518255916020019190600101906119f6565b5b509050611a1f9190611a23565b5090565b5b80821115611a3c576000816000905550600101611a24565b5090565b6000604051905090565b600080fd5b600080fd5b60007fffffffff0000000000000000000000000000000000000000000000000000000082169050919050565b611a8981611a54565b8114611a9457600080fd5b50565b600081359050611aa681611a80565b92915050565b600060208284031215611ac257611ac1611a4a565b5b6000611ad084828501611a97565b91505092915050565b60008115159050919050565b611aee81611ad9565b82525050565b6000602082019050611b096000830184611ae5565b92915050565b600081519050919050565b600082825260208201905092915050565b60005b83811015611b49578082015181840152602081019050611b2e565b83811115611b58576000848401525b50505050565b6000601f19601f8301169050919050565b6000611b7a82611b0f565b611b848185611b1a565b9350611b94818560208601611b2b565b611b9d81611b5e565b840191505092915050565b60006020820190508181036000830152611bc28184611b6f565b905092915050565b6000819050919050565b611bdd81611bca565b8114611be857600080fd5b50565b600081359050611bfa81611bd4565b92915050565b600060208284031215611c1657611c15611a4a565b5b6000611c2484828501611beb565b91505092915050565b600073ffffffffffffffffffffffffffffffffffffffff82169050919050565b6000611c5882611c2d565b9050919050565b611c6881611c4d565b82525050565b6000602082019050611c836000830184611c5f565b92915050565b611c9281611c4d565b8114611c9d57600080fd5b50565b600081359050611caf81611c89565b92915050565b60008060408385031215611ccc57611ccb611a4a565b5b6000611cda85828601611ca0565b9250506020611ceb85828601611beb565b9150509250929050565b600080600060608486031215611d0e57611d0d611a4a565b5b6000611d1c86828701611ca0565b9350506020611d2d86828701611ca0565b9250506040611d3e86828701611beb565b9150509250925092565b600080fd5b600080fd5b7f4e487b7100000000000000000000000000000000000000000000000000000000600052604160045260246000fd5b611d8a82611b5e565b810181811067ffffffffffffffff82111715611da957611da8611d52565b5b80604052505050565b6000611dbc611a40565b9050611dc88282611d81565b919050565b600067ffffffffffffffff821115611de857611de7611d52565b5b611df182611b5e565b9050602081019050919050565b82818337600083830152505050565b6000611e20611e1b84611dcd565b611db2565b905082815260208101848484011115611e3c57611e3b611d4d565b5b611e47848285611dfe565b509392505050565b600082601f830112611e6457611e63611d48565b5b8135611e74848260208601611e0d565b91505092915050565b60008060408385031215611e9457611e93611a4a565b5b600083013567ffffffffffffffff811115611eb257611eb1611a4f565b5b611ebe85828601611e4f565b9250506020611ecf85828601611beb565b9150509250929050565b600060208284031215611eef57611eee611a4a565b5b6000611efd84828501611ca0565b91505092915050565b611f0f81611bca565b82525050565b6000602082019050611f2a6000830184611f06565b92915050565b60008060408385031215611f4757611f46611a4a565b5b6000611f5585828601611beb565b9250506020611f6685828601611ca0565b9150509250929050565b611f7981611ad9565b8114611f8457600080fd5b50565b600081359050611f9681611f70565b92915050565b60008060408385031215611fb357611fb2611a4a565b5b6000611fc185828601611ca0565b9250506020611fd285828601611f87565b9150509250929050565b600067ffffffffffffffff821115611ff757611ff6611d52565b5b61200082611b5e565b9050602081019050919050565b600061202061201b84611fdc565b611db2565b90508281526020810184848401111561203c5761203b611d4d565b5b612047848285611dfe565b509392505050565b600082601f83011261206457612063611d48565b5b813561207484826020860161200d565b91505092915050565b6000806000806080858703121561209757612096611a4a565b5b60006120a587828801611ca0565b94505060206120b687828801611ca0565b93505060406120c787828801611beb565b925050606085013567ffffffffffffffff8111156120e8576120e7611a4f565b5b6120f48782880161204f565b91505092959194509250565b6000806040838503121561211757612116611a4a565b5b600061212585828601611ca0565b925050602061213685828601611ca0565b9150509250929050565b7f4e487b7100000000000000000000000000000000000000000000000000000000600052602260045260246000fd5b6000600282049050600182168061218757607f821691505b6020821081141561219b5761219a612140565b5b50919050565b7f4552433732313a20617070726f76616c20746f2063757272656e74206f776e6560008201527f7200000000000000000000000000000000000000000000000000000000000000602082015250565b60006121fd602183611b1a565b9150612208826121a1565b604082019050919050565b6000602082019050818103600083015261222c816121f0565b9050919050565b7f4552433732313a20617070726f76652063616c6c6572206973206e6f7420746f60008201527f6b656e206f776e6572206e6f7220617070726f76656420666f7220616c6c0000602082015250565b600061228f603e83611b1a565b915061229a82612233565b604082019050919050565b600060208201905081810360008301526122be81612282565b9050919050565b7f4552433732313a2063616c6c6572206973206e6f7420746f6b656e206f776e6560008201527f72206e6f7220617070726f766564000000000000000000000000000000000000602082015250565b6000612321602e83611b1a565b915061232c826122c5565b604082019050919050565b6000602082019050818103600083015261235081612314565b9050919050565b7f4e487b7100000000000000000000000000000000000000000000000000000000600052601160045260246000fd5b600061239182611bca565b91507fffffffffffffffffffffffffffffffffffffffffffffffffffffffffffffffff8214156123c4576123c3612357565b5b600182019050919050565b7f4e487b7100000000000000000000000000000000000000000000000000000000600052603260045260246000fd5b7f4552433732313a20696e76616c696420746f6b656e2049440000000000000000600082015250565b6000612434601883611b1a565b915061243f826123fe565b602082019050919050565b6000602082019050818103600083015261246381612427565b9050919050565b7f4552433732313a2061646472657373207a65726f206973206e6f74206120766160008201527f6c6964206f776e65720000000000000000000000000000000000000000000000602082015250565b60006124c6602983611b1a565b91506124d18261246a565b604082019050919050565b600060208201905081810360008301526124f5816124b9565b9050919050565b600081905092915050565b600061251282611b0f565b61251c81856124fc565b935061252c818560208601611b2b565b80840191505092915050565b60006125448285612507565b91506125508284612507565b91508190509392505050565b7f4552433732313a207472616e736665722066726f6d20696e636f72726563742060008201527f6f776e6572000000000000000000000000000000000000000000000000000000602082015250565b60006125b8602583611b1a565b91506125c38261255c565b604082019050919050565b600060208201905081810360008301526125e7816125ab565b9050919050565b7f4552433732313a207472616e7366657220746f20746865207a65726f2061646460008201527f7265737300000000000000000000000000000000000000000000000000000000602082015250565b600061264a602483611b1a565b9150612655826125ee565b604082019050919050565b600060208201905081810360008301526126798161263d565b9050919050565b600061268b82611bca565b915061269683611bca565b9250828210156126a9576126a8612357565b5b828203905092915050565b60006126bf82611bca565b91506126ca83611bca565b9250827fffffffffffffffffffffffffffffffffffffffffffffffffffffffffffffffff038211156126ff576126fe612357565b5b828201905092915050565b7f4552433732313a206d696e7420746f20746865207a65726f2061646472657373600082015250565b6000612740602083611b1a565b915061274b8261270a565b602082019050919050565b6000602082019050818103600083015261276f81612733565b9050919050565b7f4552433732313a20746f6b656e20616c7265616479206d696e74656400000000600082015250565b60006127ac601c83611b1a565b91506127b782612776565b602082019050919050565b600060208201905081810360008301526127db8161279f565b9050919050565b7f4552433732313a20617070726f766520746f2063616c6c657200000000000000600082015250565b6000612818601983611b1a565b9150612823826127e2565b602082019050919050565b600060208201905081810360008301526128478161280b565b9050919050565b7f4552433732313a207472616e7366657220746f206e6f6e20455243373231526560008201527f63656976657220696d706c656d656e7465720000000000000000000000000000602082015250565b60006128aa603283611b1a565b91506128b58261284e565b604082019050919050565b600060208201905081810360008301526128d98161289d565b9050919050565b600081519050919050565b600082825260208201905092915050565b6000612907826128e0565b61291181856128eb565b9350612921818560208601611b2b565b61292a81611b5e565b840191505092915050565b600060808201905061294a6000830187611c5f565b6129576020830186611c5f565b6129646040830185611f06565b818103606083015261297681846128fc565b905095945050505050565b60008151905061299081611a80565b92915050565b6000602082840312156129ac576129ab611a4a565b5b60006129ba84828501612981565b91505092915050565b7f4e487b7100000000000000000000000000000000000000000000000000000000600052601260045260246000fd5b60006129fd82611bca565b9150612a0883611bca565b925082612a1857612a176129c3565b5b828204905092915050565b6000612a2e82611bca565b9150612a3983611bca565b925082612a4957612a486129c3565b5b82820690509291505056fea26469706673582212203d1d7b3c4f5f5ae5fe377539c167d0f0b7f480c6cab041c959d9ede4534e285964736f6c63430008090033",
  "linkReferences": {},
  "deployedLinkReferences": {}
}